:020000040800F2
:1000000000000220E51200081D0400081F0400087B
:100010002104000823040008250400080000000053
:10002000000000000000000000000000270400089D
:1000300029040008000000002B0400082D0400081B
:100040003513000835130008351300083513000870
:100050003513000835130008351300083513000860
:100060003513000835130008351300083513000850
:100070003513000835130008351300083513000840
:100080003513000835130008351300083513000830
:100090003513000835130008351300083513000820
:1000A0003513000835130008351300083513000810
:1000B0003513000835130008351300083513000800
:1000C00035130008351300083513000835130008F0
:1000D00035130008351300083513000835130008E0
:1000E0003513000835130008000000003513000820
:1000F00035130008351300083513000835130008C0
:1001000035130008351300083513000835130008AF
:10011000351300083513000835130008351300089F
:10012000351300083513000835130008351300088F
:10013000351300083513000835130008351300087F
:10014000351300083513000800000000000000000F
:10015000351300083513000835130008351300085F
:10016000351300083513000835130008351300084F
:10017000351300083513000835130008351300083F
:10018000351300083513000835130008351300082F
:10019000351300083513000835130008351300081F
:1001A000351300083513000835130008351300080F
:1001B00035130008351300083513000835130008FF
:1001C00035130008351300083513000835130008EF
:1001D00035130008351300083513000835130008DF
:1001E00035130008351300083513000835130008CF
:1001F00035130008351300083513000835130008BF
:1002000035130008351300083513000835130008AE
:10021000351300083513000835130008351300089E
:1002200035130008351300083513000800000000DE
:10023000351300083513000835130008351300087E
:10024000351300083513000835130008351300086E
:10025000351300083513000835130008351300085E
:10026000351300083513000835130008351300084E
:10027000351300083513000835130008351300083E
:10028000351300083513000835130008000000007E
:080290003513000835130008C6
:1002980010B5054C237833B9044B13B10448AFF3B8
:1002A80000800123237010BD100000200000000012
:1002B8009013000808B5034B1BB103490348AFF37B
:1002C800008008BD00000000140000209013000802
:1002D80072B6FEE700B59DB04C22002109A801F0D6
:1002E80026F82022002101A801F021F8042000F0BE
:1002F800CDFE00230093254BDA6A22F00102DA6270
:10030800DB6A03F001030093214A936923F4404315
:1003180043F400439361936903F440430093009BC3
:100328001B4B9B6913F4005FFAD002230993012247
:100338000C9240220D9212930022139204211491E0
:100348001E2115911693179318930C2319931A923B
:100358001B9209A800F0E4F8A0B93F2301930323F6
:1003680002930021039104914023059306934FF4CF
:1003780080620792089301A800F026FD20B91DB0FD
:100388005DF804FBFFF7A4FFFFF7A2FF0004005885
:100398000048025800B583B04FF6FF7300E01346DB
:1003A8001B4A126812F4004F03D05A1E002BF6DCC9
:1003B8001346002B1ADB00F0DBFEFFF78BFF144B14
:1003C800D3F8E02042F00072C3F8E020D3F8E03020
:1003D80003F000730193019B002000F03FFE002111
:1003E800084600F04BFE4FF6FF7302E0FFF770FF80
:1003F8001346074A126812F4004F03D15A1E002B05
:10040800F6DC1346002B00DBFEE7FFF761FF00BFB9
:1004180000440258FEE7FEE7FEE7FEE7FEE7704706
:100428007047704708B500F0D1FE08BD82B0074B91
:10043800D3F8F42042F00202C3F8F420D3F8F430E1
:1004480003F002030193019B02B070470044025875
:10045800002804DB0901C9B2044B1954704700F0A5
:100468000F000901C9B2024B1954704700E400E0BB
:1004780014ED00E000B500F00700C0F1070CBCF176
:10048800040F28BF4FF0040C031D062B0FD9C31E01
:100498004FF0FF3E0EFA0CF021EA000199400EFAE7
:1004A80003FE22EA0E0241EA02005DF804FB002383
:1004B800EEE700000649CB6823F4E0631B041B0C3D
:1004C800000200F4E0600343024A1A43CA6070471E
:1004D80000ED00E00000FA0510B50446054BD868A9
:1004E800C0F30220FFF7C6FF01462046FFF7B0FF22
:1004F80010BD00BF00ED00E00138B0F1807F0BD2E5
:100508004FF0E0235861054AF02182F823100020BB
:10051800986107221A6170470120704700ED00E0DA
:10052800002800F0398338B50446036813F0010F3A
:1005380025D0944A136903F03803926A102B15D01A
:10054800182B0FD06368B3F5803F3FD0002B53D1F1
:100558008C4B1A6822F480321A601A6822F48022BE
:100568001A6038E002F00302022AEBD1854B1B68BF
:1005780013F4003F03D06368002B00F00F83236857
:1005880013F0020F00F0A1807E4A1369926A13F0FB
:1005980038035AD0182B55D0E368002B00F0DE80C2
:1005A80078490A6822F0190213430B6000F01AFE1A
:1005B8000546744B1B6813F0040F40F0AD8000F043
:1005C80011FE401B0228F4D90320EEE26D4A13689D
:1005D80043F48033136063682BB300F003FE0546D1
:1005E800684B1B6813F4003FC9D100F0FBFD401BAA
:1005F8006428F5D90320D8E2B3F5A02F09D0614BC0
:100608001A6822F480321A601A6822F480221A606A
:10061800E1E75C4B1A6842F480221A601A6842F4D7
:1006280080321A60D7E700F0DDFD0546554B1B68A0
:1006380013F4003FA3D000F0D5FD401B6428F5D982
:100648000320B2E212F0030FA6D14E4B1B6813F041
:10065800040F03D0E368002B00F0A282494A136814
:1006680023F01903E1680B43136000F0BBFD054656
:10067800444B1B6813F0040F06D100F0B3FD401B78
:100688000228F5D9032090E200F0B2FD41F20303FD
:10069800984212D82269402A07D03A494B6823F475
:1006A8007C3343EA02334B600FE0364A536823F445
:1006B8007C3343F40033536007E0324A536823F035
:1006C800FE43216943EA01635360236813F0100F66
:1006D80000F088802B4A136903F03803926A082BCC
:1006E80056D0182B50D0E369002B00F0B880254A6B
:1006F800136843F08003136000F074FD0546214B36
:100708001B6813F4807F40F0888000F06BFD401B6D
:100718000228F4D9032048E200F06AFD41F20303FD
:10072800984212D82269402A07D016494B6823F408
:100738007C3343EA02334B60C7E7124A536823F419
:100748007C3343F400335360BFE70E4A536823F009
:10075800FE43216943EA01635360B6E7094A136817
:1007680023F00103136000F03DFD0546054B1B68AF
:1007780013F0040FA9D000F035FD401B0228F5D96D
:10078800032012E20044025802F00302012AAAD10F
:10079800A14B1B6813F4807F03D0E369802B40F0E2
:1007A800018200F025FD41F20303984212D8226A23
:1007B800202A07D098494B6823F0F84343EA82631C
:1007C8004B600FE0944A536823F0F84343F08043AA
:1007D800536007E0904AD36823F07C53216A43EAC8
:1007E8000163D360236813F0080F60D06369002B9E
:1007F80049D0894A536F43F00103536700F0F2FC74
:100808000546854B5B6F13F0020F50D100F0EAFCF0
:10081800401B0228F5D90320C7E100F0E9FC41F2AA
:100828000303984212D8226A202A07D07A494B68D3
:1008380023F0F84343EA82634B60D3E7764A536870
:1008480023F0F84343F080435360CBE7724AD36800
:1008580023F07C53216A43EA0163D360C2E76E4AFE
:10086800136823F08003136000F0BCFC05466A4B54
:100878001B6813F4807FB5D000F0B4FC401B02283D
:10088800F5D9032091E1644A536F23F001035367BC
:1008980000F0A8FC0546604B5B6F13F0020F06D012
:1008A80000F0A0FC401B0228F5D903207DE1236855
:1008B80013F0200F29D0A3699BB1574A136843F45A
:1008C8008053136000F08EFC0546534B1B6813F4ED
:1008D800005F1AD100F086FC401B0228F5D90320DE
:1008E80063E14D4A136823F48053136000F07AFCE7
:1008F8000546494B1B6813F4005F06D000F072FCF4
:10090800401B0228F5D903204FE1236813F0040F98
:1009180021D1636A002B00F047813F4A126902F037
:100928003802182A00F0EE80022B79D03A4A136870
:1009380023F08073136000F055FC0446364B1B68A7
:1009480013F0007F00F0DC8000F04CFC001B022854
:10095800F4D9032029E1314A136843F48073136002
:1009680000F040FC05462D4B1B6813F4807F06D130
:1009780000F038FC401B6428F5D9032015E1A36872
:10098800012B0AD00BBB244B1A6F22F001021A6705
:100998001A6F22F004021A6704E01F4A136F43F02B
:1009A80001031367A36833B300F01CFC05461A4B18
:1009B8001B6F13F0020FACD100F014FC401B41F286
:1009C80088339842F3D90320EFE0052B09D0124B66
:1009D8001A6F22F001021A671A6F22F004021A67CE
:1009E800E0E70D4B1A6F42F004021A671A6F42F0E3
:1009F80001021A67D6E700F0F5FB0546064B1B6FA8
:100A080013F0020F85D000F0EDFB401B41F2883354
:100A18009842F3D90320C8E000440258004802581D
:100A2800694A136823F08073136000F0DBFB054606
:100A3800654B1B6813F0007F06D000F0D3FB401B0A
:100A48000228F5D90320B0E05F4B996A5F4A0A4053
:100A5800A16AE06A41EA00110A439A62226B013AEC
:100A6800C2F30802616B0139490289B20A43A16BDA
:100A78000139090401F4FE010A43E16B0139090651
:100A880001F0FE410A431A63DA6A22F00102DA62CF
:100A98005A6B6FF3CF02A16C42EAC1025A63DA6A59
:100AA80022F00C02216C0A43DA62DA6A22F00202AE
:100AB800616C0A43DA62DA6A42F48032DA62DA6A2C
:100AC80042F40032DA62DA6A42F48022DA62DA6ADE
:100AD80042F00102DA621A6842F080721A6000F08D
:100AE80081FB0446384B1B6813F0007F06D100F0E9
:100AF80079FB001B0228F5D9032056E0002054E0BA
:100B0800002052E0304A916A106B012B4ED001F060
:100B18000303A26A93424BD1C1F30511E36A9942D8
:100B280048D1C0F30802236B013B9A4244D1C0F379
:100B38004622636B013B9A4240D1C0F30642A36B45
:100B4800013B9A423CD1C0F30660E36B013B9842FB
:100B580038D11D4B5B6BC3F3CC03A26C9A4201D115
:100B6800002022E0184AD36A23F00103D36200F080
:100B780039FB054600F036FBA842FBD0124A536BFE
:100B88006FF3CF03A16C43EAC1035363D36A43F005
:100B98000103D362002008E001207047012004E02F
:100BA800012002E0012000E0002038BD0120FCE720
:100BB8000120FAE70120F8E70120F6E70120F4E731
:100BC8000120F2E70120F0E7004402580CFCFFFF87
:100BD800754B1B6903F03803102B00F0DE80182BCF
:100BE8000FD0002B40F0DB806F4B1B6813F0200FF9
:100BF80000F0D7806C4B1B68C3F3C1036B48D84027
:100C0800704710B4684B9A6A02F003029C6AC4F3F6
:100C18000510D96A01F001015B6BC3F3CC0301FB3A
:100C280003F307EE903AF8EE677A14F47C7F77D0F6
:100C3800012A4AD0022A76D0002A40F091805A4BE5
:100C48001B6813F0200F23D057490A68C2F3C1026A
:100C5800564BD34007EE103AF8EE476A07EE100AF3
:100C6800B8EE476A86EE867A0B6BC3F3080306EE86
:100C7800903AF8EE666A9FED4E6A67EE867A76EEEF
:100C8800A77AF7EE006A77EEA67A27EE277A38E099
:100C980007EE100AF8EE476A9FED466A86EE267A56
:100CA800414B1B6BC3F3080306EE903AF8EE666AF5
:100CB8009FED3F6A67EE867A76EEA77AF7EE006ACE
:100CC80077EEA67A27EE277A1BE007EE100AF8EEF1
:100CD800476A9FED396A86EE267A334B1B6BC3F35E
:100CE800080306EE903AF8EE666A9FED316A67EE01
:100CF800867A76EEA77AF7EE006A77EEA67A27EE7E
:100D0800277A294B1B6BC3F34623013307EE903A2E
:100D1800F8EE677AC7EE276AFCEEE67A17EE900AD5
:100D28005DF8044B704707EE100AF8EE476A9FED2E
:100D3800236A86EE267A1C4B1B6BC3F3080306EE68
:100D4800903AF8EE666A9FED1A6A67EE867A76EE52
:100D5800A77AF7EE006A77EEA67A27EE277AD0E729
:100D680007EE100AF8EE476A9FED136A86EE267AB8
:100D78000D4B1B6BC3F3080306EE903AF8EE666A58
:100D88009FED0B6A67EE867A76EEA77AF7EE006A31
:100D980077EEA67A27EE277AB3E70948704709481D
:100DA80070470248704700BF004402580090D003C3
:100DB800000000390024744C0024744A20BCBE4B47
:100DC80040787D0100093D00002800F0328170B5AF
:100DD8000D4604469B4B1B6803F00F038B420BD256
:100DE800984A136823F00F030B431360136803F04A
:100DF8000F038B4240F01F81236813F0040F0CD0BF
:100E08002269914B9B6903F070039A4205D98E4978
:100E18008B6923F070031A438A61236813F0080F63
:100E28000CD06269884BDB6903F070039A4205D9DC
:100E38008549CB6923F070031A43CA61236813F00C
:100E4800100F0CD0A269804BDB6903F4E0639A426F
:100E580005D97D49CB6923F4E0631A43CA61236845
:100E680013F0200F0CD0E269774B1B6A03F0700374
:100E78009A4205D974490B6A23F070031A430A622F
:100E8800236813F0020F0CD0E2686F4B9B6903F0E4
:100E98000F039A4205D96C498B6923F00F031A4353
:100EA8008A61236813F0010F41D0674A936923F4DC
:100EB8007063A1680B4393616368022B0AD0032B0C
:100EC80027D0012B2CD0604A126812F0040F06D1EB
:100ED8000120ADE0126812F4003F00F0AE805A49DC
:100EE8000A6922F0070213430B6100F07BF90646FA
:100EF800554B1B6903F038036268B3EBC20F16D079
:100F080000F070F9801B41F288339842F0D9032031
:100F18008EE04D4A126812F0007FE0D1012087E090
:100F2800494A126812F4807FD9D1012080E02368F1
:100F380013F0020F0CD0E268434B9B6903F00F03D8
:100F48009A4205D240498B6923F00F031A438A61FC
:100F58003C4B1B6803F00F03AB420AD9394A1368AC
:100F680023F00F032B431360136803F00F03AB4206
:100F780065D1236813F0040F0CD02269324B9B69AA
:100F880003F070039A4205D22F498B6923F070034E
:100F98001A438A61236813F0080F0CD062692A4B40
:100FA800DB6903F070039A4205D22749CB6923F025
:100FB80070031A43CA61236813F0100F0CD0A2699A
:100FC800214BDB6903F4E0639A4205D21E49CB69E1
:100FD80023F4E0631A43CA61236813F0200F0CD08E
:100FE800E269194B1B6A03F070039A4205D216494D
:100FF8000B6A23F070031A430A62FFF7E9FD1249EE
:101008008B69C3F30323114AD35C03F01F03D84051
:101018008B6903F00F03D35C03F01F0320FA03F37B
:101028000B4A13600B4B18600B4B186800F078F8EC
:1010380070BD012070470120FAE70120F8E7012080
:10104800F6E700BF0020005200440258A813000829
:10105800080000200C000020040000202030054B70
:1010680053F82020044B9A4201D0012070470020F9
:10107800704700BF006402580003008041F44071CB
:10108800014B43F8201070470064025838B50446F5
:10109800224BDB6803F00703062B07D01F4BDB68E6
:1010A80003F03F03834236D0012038BD1B4AD36882
:1010B80023F03F030343D36000F094F80546174B31
:1010C8005B6813F4005F07D100F08CF8431BB3F59D
:1010D8007A7FF4D90120E8E72E2C18BF1E2C08D0FF
:1010E8002D2C14BF002301231D2C02D00BB9002086
:1010F800DBE700F077F80446084BDB6813F4803F21
:1011080007D100F06FF8001BB0F57A7FF4D9012001
:10111800CBE70020C9E70020C7E700BF0048025816
:10112800104B1B780BB90120704710B504464FF4DB
:101138007A70B0FBF3F30C4A1068B0FBF3F0FFF7DA
:10114800DBF968B90F2C01D901200AE000222146F9
:101158004FF0FF30FFF7C0F9044B1C60002000E09F
:10116800012010BD000000200C0000200400002019
:1011780010B50320FFF79EF9FFF72AFD0F498B6989
:10118800C3F303230E4AD35C03F01F03D8408B69D3
:1011980003F00F03D35C03F01F0320FA03F3094A9B
:1011A8001360094B18600F20FFF7BAFF10B1012434
:1011B800204610BD0446FFF739F9F9E70044025804
:1011C800A8130008080000200C000020034B1B781F
:1011D800034A11680B441360704700BF00000020E9
:1011E8002C000020014B1868704700BF2C0000201D
:1011F800014B1868000C70470010005C2D4BD3F8A9
:10120800882042F47002C3F888201A6942F010025C
:101218001A61294B1B6803F00F03062B06D8264AD0
:10122800136823F00F0343F007031360234B1A6876
:1012380042F001021A6000221A611968204A0A4025
:101248001A601D4B1B6813F0080F06D01A4A136862
:1012580023F00F0343F007031360184B00229A6131
:10126800DA611A62174999621749D96217491963ED
:101278005A639963DA6319645A64196821F48021FE
:1012880019601A664FF0B042D2F8E43043F4804354
:10129800C2F8E4300E4B1B686FF30F03B3F1005F25
:1012A80003D20C4B0122C3F808210B4B43F2D202A4
:1012B8001A60704700ED00E0002000520044025818
:1012C8007FEDF6EA000202020000FF018002010140
:1012D8000010005C0080005100400052DFF834D05C
:1012E800FFF78CFF0C480D490D4A002302E0D45843
:1012F800C4500433C4188C42F9D30A4A0A4C002358
:1013080001E013600432A242FBD300F019F8FFF7A2
:1013180041F8704700000220000000201000002063
:10132800C01300081000002030000020FEE702442F
:101338000346934200D1704703F8011BF9E7000008
:1013480070B50D4D0D4C641BA4100026A64209D1A2
:101358000B4D0C4C00F018F8641BA4100026A64294
:1013680005D170BD55F8043B98470136EEE755F8AE
:10137800043B98470136F2E7B8130008B813000891
:10138800B8130008BC130008F8B500BFF8BC08BCC7
:101398009E467047F8B500BFF8BC08BC9E4670472B
:1013A8000000000001020304010203040607080903
:0413B800BD0200086A
:0413BC00990200088A
:1013C00001000000100000000090D0030090D00346
:04000005080012E5F8
:00000001FF
